{
  "contractName": "AuctionRepository",
  "abi": [
    {
      "inputs": [
        {
          "internalType": "uint256",
          "name": "",
          "type": "uint256"
        },
        {
          "internalType": "uint256",
          "name": "",
          "type": "uint256"
        }
      ],
      "name": "auctionBids",
      "outputs": [
        {
          "internalType": "address payable",
          "name": "from",
          "type": "address"
        },
        {
          "internalType": "uint256",
          "name": "amount",
          "type": "uint256"
        }
      ],
      "stateMutability": "view",
      "type": "function",
      "constant": true
    },
    {
      "inputs": [
        {
          "internalType": "address",
          "name": "",
          "type": "address"
        },
        {
          "internalType": "uint256",
          "name": "",
          "type": "uint256"
        }
      ],
      "name": "auctionOwner",
      "outputs": [
        {
          "internalType": "uint256",
          "name": "",
          "type": "uint256"
        }
      ],
      "stateMutability": "view",
      "type": "function",
      "constant": true
    },
    {
      "inputs": [
        {
          "internalType": "uint256",
          "name": "",
          "type": "uint256"
        }
      ],
      "name": "auctions",
      "outputs": [
        {
          "internalType": "string",
          "name": "name",
          "type": "string"
        },
        {
          "internalType": "uint256",
          "name": "startBlock",
          "type": "uint256"
        },
        {
          "internalType": "uint256",
          "name": "endBlock",
          "type": "uint256"
        },
        {
          "internalType": "uint256",
          "name": "startPrice",
          "type": "uint256"
        },
        {
          "internalType": "string",
          "name": "metadata",
          "type": "string"
        },
        {
          "internalType": "uint256",
          "name": "deedId",
          "type": "uint256"
        },
        {
          "internalType": "address",
          "name": "deedRepositoryAddress",
          "type": "address"
        },
        {
          "internalType": "address",
          "name": "owner",
          "type": "address"
        },
        {
          "internalType": "bool",
          "name": "active",
          "type": "bool"
        },
        {
          "internalType": "bool",
          "name": "finalized",
          "type": "bool"
        }
      ],
      "stateMutability": "view",
      "type": "function",
      "constant": true
    },
    {
      "inputs": [
        {
          "internalType": "address",
          "name": "_deedRepositoryAddress",
          "type": "address"
        },
        {
          "internalType": "uint256",
          "name": "_deedId",
          "type": "uint256"
        },
        {
          "internalType": "string",
          "name": "_auctionTitle",
          "type": "string"
        },
        {
          "internalType": "string",
          "name": "_metadata",
          "type": "string"
        },
        {
          "internalType": "uint256",
          "name": "_startPrice",
          "type": "uint256"
        },
        {
          "internalType": "uint256",
          "name": "_startBlock",
          "type": "uint256"
        },
        {
          "internalType": "uint256",
          "name": "_endBlock",
          "type": "uint256"
        }
      ],
      "name": "createAuction",
      "outputs": [
        {
          "internalType": "bool",
          "name": "",
          "type": "bool"
        }
      ],
      "stateMutability": "nonpayable",
      "type": "function"
    },
    {
      "inputs": [],
      "name": "getCurrentBlock",
      "outputs": [
        {
          "internalType": "uint256",
          "name": "",
          "type": "uint256"
        }
      ],
      "stateMutability": "view",
      "type": "function",
      "constant": true
    },
    {
      "inputs": [
        {
          "internalType": "uint256",
          "name": "_auctionId",
          "type": "uint256"
        }
      ],
      "name": "bid",
      "outputs": [],
      "stateMutability": "payable",
      "type": "function",
      "payable": true
    },
    {
      "inputs": [
        {
          "internalType": "uint256",
          "name": "_auctionId",
          "type": "uint256"
        }
      ],
      "name": "cancelAuction",
      "outputs": [],
      "stateMutability": "nonpayable",
      "type": "function"
    },
    {
      "inputs": [
        {
          "internalType": "uint256",
          "name": "_auctionId",
          "type": "uint256"
        }
      ],
      "name": "finaliseAuction",
      "outputs": [],
      "stateMutability": "nonpayable",
      "type": "function"
    }
  ],
  "bytecode": "0x608060405234801561001057600080fd5b50611d0e806100206000396000f3fe60806040526004361061007b5760003560e01c8063672d5d3b1161004e578063672d5d3b1461014957806396b5a75514610174578063c8756cda1461019d578063e4d7c3cb146101da5761007b565b8063454a2ab314610080578063571a26a01461009c578063579632a9146100e25780635f93de491461010b575b600080fd5b61009a60048036038101906100959190611802565b610217565b005b3480156100a857600080fd5b506100c360048036038101906100be9190611802565b61082a565b6040516100d99a9998979695949392919061195f565b60405180910390f35b3480156100ee57600080fd5b5061010960048036038101906101049190611802565b6109f8565b005b34801561011757600080fd5b50610132600480360381019061012d919061182f565b610ec0565b6040516101409291906118e4565b60405180910390f35b34801561015557600080fd5b5061015e610f21565b60405161016b9190611a09565b60405180910390f35b34801561018057600080fd5b5061019b60048036038101906101969190611802565b610f29565b005b3480156101a957600080fd5b506101c460048036038101906101bf91906116e8565b611103565b6040516101d19190611a09565b60405180910390f35b3480156101e657600080fd5b5061020160048036038101906101fc9190611728565b611134565b60405161020e9190611944565b60405180910390f35b80806000805490501161022957600080fd5b600115156000828154811061024157610240611c27565b5b906000526020600020906008020160070160149054906101000a900460ff1615151461026c57600080fd5b600015156000828154811061028457610283611c27565b5b906000526020600020906008020160070160159054906101000a900460ff161515146102af57600080fd5b60006102b9610f21565b9050600082815481106102cf576102ce611c27565b5b9060005260206000209060080201600101548110156102ed57600080fd5b6000828154811061030157610300611c27565b5b906000526020600020906008020160020154811061031e57600080fd5b6000349050600080858154811061033857610337611c27565b5b90600052602060002090600802016040518061014001604052908160008201805461036290611b66565b80601f016020809104026020016040519081016040528092919081815260200182805461038e90611b66565b80156103db5780601f106103b0576101008083540402835291602001916103db565b820191906000526020600020905b8154815290600101906020018083116103be57829003601f168201915b5050505050815260200160018201548152602001600282015481526020016003820154815260200160048201805461041290611b66565b80601f016020809104026020016040519081016040528092919081815260200182805461043e90611b66565b801561048b5780601f106104605761010080835404028352916020019161048b565b820191906000526020600020905b81548152906001019060200180831161046e57829003601f168201915b50505050508152602001600582015481526020016006820160009054906101000a900473ffffffffffffffffffffffffffffffffffffffff1673ffffffffffffffffffffffffffffffffffffffff1673ffffffffffffffffffffffffffffffffffffffff1681526020016007820160009054906101000a900473ffffffffffffffffffffffffffffffffffffffff1673ffffffffffffffffffffffffffffffffffffffff1673ffffffffffffffffffffffffffffffffffffffff1681526020016007820160149054906101000a900460ff161515151581526020016007820160159054906101000a900460ff16151515158152505090506000858154811061059657610595611c27565b5b906000526020600020906008020160070160009054906101000a900473ffffffffffffffffffffffffffffffffffffffff1673ffffffffffffffffffffffffffffffffffffffff163373ffffffffffffffffffffffffffffffffffffffff16141561060057600080fd5b60006001600087815260200190815260200160002080549050905060008260600151905061062c6114b6565b60008311156106e957600160008981526020019081526020016000206001846106559190611a96565b8154811061066657610665611c27565b5b90600052602060002090600202016040518060400160405290816000820160009054906101000a900473ffffffffffffffffffffffffffffffffffffffff1673ffffffffffffffffffffffffffffffffffffffff1673ffffffffffffffffffffffffffffffffffffffff1681526020016001820154815250509050806020015191505b8185116106f557600080fd5b600083111561074557806000015173ffffffffffffffffffffffffffffffffffffffff166108fc82602001519081150290604051600060405180830381858888f1935050505061074457600080fd5b5b61074d6114b6565b33816000019073ffffffffffffffffffffffffffffffffffffffff16908173ffffffffffffffffffffffffffffffffffffffff168152505085816020018181525050600160008a815260200190815260200160002081908060018154018082558091505060019003906000526020600020906002020160009091909190915060008201518160000160006101000a81548173ffffffffffffffffffffffffffffffffffffffff021916908373ffffffffffffffffffffffffffffffffffffffff160217905550602082015181600101555050505050505050505050565b6000818154811061083a57600080fd5b906000526020600020906008020160009150905080600001805461085d90611b66565b80601f016020809104026020016040519081016040528092919081815260200182805461088990611b66565b80156108d65780601f106108ab576101008083540402835291602001916108d6565b820191906000526020600020905b8154815290600101906020018083116108b957829003601f168201915b5050505050908060010154908060020154908060030154908060040180546108fd90611b66565b80601f016020809104026020016040519081016040528092919081815260200182805461092990611b66565b80156109765780601f1061094b57610100808354040283529160200191610976565b820191906000526020600020905b81548152906001019060200180831161095957829003601f168201915b5050505050908060050154908060060160009054906101000a900473ffffffffffffffffffffffffffffffffffffffff16908060070160009054906101000a900473ffffffffffffffffffffffffffffffffffffffff16908060070160149054906101000a900460ff16908060070160159054906101000a900460ff1690508a565b803373ffffffffffffffffffffffffffffffffffffffff1660008281548110610a2457610a23611c27565b5b906000526020600020906008020160070160009054906101000a900473ffffffffffffffffffffffffffffffffffffffff1673ffffffffffffffffffffffffffffffffffffffff1614610a7657600080fd5b6000808381548110610a8b57610a8a611c27565b5b906000526020600020906008020160405180610140016040529081600082018054610ab590611b66565b80601f0160208091040260200160405190810160405280929190818152602001828054610ae190611b66565b8015610b2e5780601f10610b0357610100808354040283529160200191610b2e565b820191906000526020600020905b815481529060010190602001808311610b1157829003601f168201915b50505050508152602001600182015481526020016002820154815260200160038201548152602001600482018054610b6590611b66565b80601f0160208091040260200160405190810160405280929190818152602001828054610b9190611b66565b8015610bde5780601f10610bb357610100808354040283529160200191610bde565b820191906000526020600020905b815481529060010190602001808311610bc157829003601f168201915b50505050508152602001600582015481526020016006820160009054906101000a900473ffffffffffffffffffffffffffffffffffffffff1673ffffffffffffffffffffffffffffffffffffffff1673ffffffffffffffffffffffffffffffffffffffff1681526020016007820160009054906101000a900473ffffffffffffffffffffffffffffffffffffffff1673ffffffffffffffffffffffffffffffffffffffff1673ffffffffffffffffffffffffffffffffffffffff1681526020016007820160149054906101000a900460ff161515151581526020016007820160159054906101000a900460ff1615151515815250509050600060016000858152602001908152602001600020805490509050610cf86114b6565b600080831115610db65760016000878152602001908152602001600020600184610d229190611a96565b81548110610d3357610d32611c27565b5b90600052602060002090600202016040518060400160405290816000820160009054906101000a900473ffffffffffffffffffffffffffffffffffffffff1673ffffffffffffffffffffffffffffffffffffffff1673ffffffffffffffffffffffffffffffffffffffff1681526020016001820154815250509150816000015190505b60008460e00151905060008560a0015190508560c0015173ffffffffffffffffffffffffffffffffffffffff166342842e0e8385846040518463ffffffff1660e01b8152600401610e099392919061190d565b600060405180830381600087803b158015610e2357600080fd5b505af1158015610e37573d6000803e3d6000fd5b50505050600160008981548110610e5157610e50611c27565b5b906000526020600020906008020160070160156101000a81548160ff0219169083151502179055506000808981548110610e8e57610e8d611c27565b5b906000526020600020906008020160070160146101000a81548160ff0219169083151502179055505050505050505050565b60016020528160005260406000208181548110610edc57600080fd5b9060005260206000209060020201600091509150508060000160009054906101000a900473ffffffffffffffffffffffffffffffffffffffff16908060010154905082565b600043905090565b803373ffffffffffffffffffffffffffffffffffffffff1660008281548110610f5557610f54611c27565b5b906000526020600020906008020160070160009054906101000a900473ffffffffffffffffffffffffffffffffffffffff1673ffffffffffffffffffffffffffffffffffffffff1614610fa757600080fd5b60006001600084815260200190815260200160002080549050905060008111156110c157600060016000858152602001908152602001600020600183610fed9190611a96565b81548110610ffe57610ffd611c27565b5b90600052602060002090600202016040518060400160405290816000820160009054906101000a900473ffffffffffffffffffffffffffffffffffffffff1673ffffffffffffffffffffffffffffffffffffffff1673ffffffffffffffffffffffffffffffffffffffff1681526020016001820154815250509050806000015173ffffffffffffffffffffffffffffffffffffffff166108fc82602001519081150290604051600060405180830381858888f193505050506110bf57600080fd5b505b60008084815481106110d6576110d5611c27565b5b906000526020600020906008020160070160146101000a81548160ff021916908315150217905550505050565b6002602052816000526040600020818154811061111f57600080fd5b90600052602060002001600091509150505481565b6000878760008273ffffffffffffffffffffffffffffffffffffffff1663081812fc836040518263ffffffff1660e01b81526004016111739190611a09565b60206040518083038186803b15801561118b57600080fd5b505afa15801561119f573d6000803e3d6000fd5b505050506040513d601f19601f820116820180604052508101906111c391906116bb565b90503073ffffffffffffffffffffffffffffffffffffffff168173ffffffffffffffffffffffffffffffffffffffff16146111fd57600080fd5b60008080549050905061120e6114e6565b8a81600001819052508781602001818152505086816040018181525050888160600181815250508981608001819052508b8160a00181815250508c8160c0019073ffffffffffffffffffffffffffffffffffffffff16908173ffffffffffffffffffffffffffffffffffffffff1681525050338160e0019073ffffffffffffffffffffffffffffffffffffffff16908173ffffffffffffffffffffffffffffffffffffffff168152505060018161010001901515908115158152505060008161012001901515908115158152505060008190806001815401808255809150506001900390600052602060002090600802016000909190919091506000820151816000019080519060200190611324929190611569565b50602082015181600101556040820151816002015560608201518160030155608082015181600401908051906020019061135f929190611569565b5060a0820151816005015560c08201518160060160006101000a81548173ffffffffffffffffffffffffffffffffffffffff021916908373ffffffffffffffffffffffffffffffffffffffff16021790555060e08201518160070160006101000a81548173ffffffffffffffffffffffffffffffffffffffff021916908373ffffffffffffffffffffffffffffffffffffffff1602179055506101008201518160070160146101000a81548160ff0219169083151502179055506101208201518160070160156101000a81548160ff0219169083151502179055505050600260003373ffffffffffffffffffffffffffffffffffffffff1673ffffffffffffffffffffffffffffffffffffffff168152602001908152602001600020829080600181540180825580915050600190039060005260206000200160009091909190915055600195505050505050979650505050505050565b6040518060400160405280600073ffffffffffffffffffffffffffffffffffffffff168152602001600081525090565b604051806101400160405280606081526020016000815260200160008152602001600081526020016060815260200160008152602001600073ffffffffffffffffffffffffffffffffffffffff168152602001600073ffffffffffffffffffffffffffffffffffffffff1681526020016000151581526020016000151581525090565b82805461157590611b66565b90600052602060002090601f01602090048101928261159757600085556115de565b82601f106115b057805160ff19168380011785556115de565b828001600101855582156115de579182015b828111156115dd5782518255916020019190600101906115c2565b5b5090506115eb91906115ef565b5090565b5b808211156116085760008160009055506001016115f0565b5090565b600061161f61161a84611a49565b611a24565b90508281526020810184848401111561163b5761163a611c8a565b5b611646848285611b24565b509392505050565b60008135905061165d81611caa565b92915050565b60008151905061167281611caa565b92915050565b600082601f83011261168d5761168c611c85565b5b813561169d84826020860161160c565b91505092915050565b6000813590506116b581611cc1565b92915050565b6000602082840312156116d1576116d0611c94565b5b60006116df84828501611663565b91505092915050565b600080604083850312156116ff576116fe611c94565b5b600061170d8582860161164e565b925050602061171e858286016116a6565b9150509250929050565b600080600080600080600060e0888a03121561174757611746611c94565b5b60006117558a828b0161164e565b97505060206117668a828b016116a6565b965050604088013567ffffffffffffffff81111561178757611786611c8f565b5b6117938a828b01611678565b955050606088013567ffffffffffffffff8111156117b4576117b3611c8f565b5b6117c08a828b01611678565b94505060806117d18a828b016116a6565b93505060a06117e28a828b016116a6565b92505060c06117f38a828b016116a6565b91505092959891949750929550565b60006020828403121561181857611817611c94565b5b6000611826848285016116a6565b91505092915050565b6000806040838503121561184657611845611c94565b5b6000611854858286016116a6565b9250506020611865858286016116a6565b9150509250929050565b61187881611adc565b82525050565b61188781611aca565b82525050565b61189681611aee565b82525050565b60006118a782611a7a565b6118b18185611a85565b93506118c1818560208601611b33565b6118ca81611c99565b840191505092915050565b6118de81611b1a565b82525050565b60006040820190506118f9600083018561186f565b61190660208301846118d5565b9392505050565b6000606082019050611922600083018661187e565b61192f602083018561187e565b61193c60408301846118d5565b949350505050565b6000602082019050611959600083018461188d565b92915050565b600061014082019050818103600083015261197a818d61189c565b9050611989602083018c6118d5565b611996604083018b6118d5565b6119a3606083018a6118d5565b81810360808301526119b5818961189c565b90506119c460a08301886118d5565b6119d160c083018761187e565b6119de60e083018661187e565b6119ec61010083018561188d565b6119fa61012083018461188d565b9b9a5050505050505050505050565b6000602082019050611a1e60008301846118d5565b92915050565b6000611a2e611a3f565b9050611a3a8282611b98565b919050565b6000604051905090565b600067ffffffffffffffff821115611a6457611a63611c56565b5b611a6d82611c99565b9050602081019050919050565b600081519050919050565b600082825260208201905092915050565b6000611aa182611b1a565b9150611aac83611b1a565b925082821015611abf57611abe611bc9565b5b828203905092915050565b6000611ad582611afa565b9050919050565b6000611ae782611afa565b9050919050565b60008115159050919050565b600073ffffffffffffffffffffffffffffffffffffffff82169050919050565b6000819050919050565b82818337600083830152505050565b60005b83811015611b51578082015181840152602081019050611b36565b83811115611b60576000848401525b50505050565b60006002820490506001821680611b7e57607f821691505b60208210811415611b9257611b91611bf8565b5b50919050565b611ba182611c99565b810181811067ffffffffffffffff82111715611bc057611bbf611c56565b5b80604052505050565b7f4e487b7100000000000000000000000000000000000000000000000000000000600052601160045260246000fd5b7f4e487b7100000000000000000000000000000000000000000000000000000000600052602260045260246000fd5b7f4e487b7100000000000000000000000000000000000000000000000000000000600052603260045260246000fd5b7f4e487b7100000000000000000000000000000000000000000000000000000000600052604160045260246000fd5b600080fd5b600080fd5b600080fd5b600080fd5b6000601f19601f8301169050919050565b611cb381611aca565b8114611cbe57600080fd5b50565b611cca81611b1a565b8114611cd557600080fd5b5056fea2646970667358221220466e37d3236fb8bee4a7529e777e0cbc6743d2bd4c1ea22e5445b40fd509ec8264736f6c63430008070033",
  "immutableReferences": {},
  "source": "// SPDX-License-Identifier: GPL-3.0\n\npragma solidity >=0.7.0 <0.9.0;\n\nimport \"./DeedRepository.sol\";\n\ncontract AuctionRepository  {\n    \n    // Array with all auctions\n    Auction[] public auctions;\n\n    // Mapping from auction index to user bids\n    mapping(uint256 => Bid[]) public auctionBids;\n\n    // Mapping from owner to a list of owned auctions\n    mapping(address => uint[]) public auctionOwner;\n\n    // Bid struct to hold bidder and amount\n    struct Bid {\n        address payable from;\n        uint256 amount;\n    }\n\n    // Auction struct which holds all the required info\n    struct Auction {\n        string name;\n        uint256 startBlock;\n        uint256 endBlock;\n        uint256 startPrice;\n        string metadata;\n        uint256 deedId;\n        address deedRepositoryAddress;\n        address owner;\n        bool active;\n        bool finalized;\n    }\n    \n    modifier isOwner(uint _auctionId) {\n        require(auctions[_auctionId].owner == msg.sender);\n        _;\n    }\n    \n    modifier contractHasDeedApproval(address _deedRepositoryAddress, uint256 _deedId) {\n        address deedApproval = DeedRepository(_deedRepositoryAddress).getApproved(_deedId);\n        require(deedApproval == address(this));\n        _;\n    }\n\n    modifier auctionIsActive(uint _auctionId) {\n        require(auctions.length > _auctionId);\n        require(auctions[_auctionId].active == true);\n        require(auctions[_auctionId].finalized == false);\n        uint current_block = getCurrentBlock();\n        require(current_block >= auctions[_auctionId].startBlock);\n        require(current_block < auctions[_auctionId].endBlock);\n        _;\n    }\n    \n    function createAuction(address _deedRepositoryAddress, uint256 _deedId, string memory _auctionTitle, string memory _metadata, uint256 _startPrice, uint256 _startBlock, uint256 _endBlock) public contractHasDeedApproval(_deedRepositoryAddress, _deedId) returns(bool) {\n        uint auctionId = auctions.length;\n        Auction memory newAuction;\n        newAuction.name = _auctionTitle;\n        newAuction.startBlock = _startBlock;\n        newAuction.endBlock = _endBlock;\n        // newAuction.startTime = block.timestamp;\n        newAuction.startPrice = _startPrice;\n        newAuction.metadata = _metadata;\n        newAuction.deedId = _deedId;\n        newAuction.deedRepositoryAddress = _deedRepositoryAddress;\n        newAuction.owner = msg.sender;\n        newAuction.active = true;\n        newAuction.finalized = false;\n\n        auctions.push(newAuction);        \n        auctionOwner[msg.sender].push(auctionId);\n        \n        // emit AuctionCreated(msg.sender, auctionId);\n        return true;\n    }\n    \n    function getCurrentBlock() public view returns(uint256) {\n        return block.number;\n    }\n\n    function bid(uint _auctionId) public payable auctionIsActive(_auctionId) {\n        uint256 ethAmountSent = msg.value;\n\n        Auction memory myAuction = auctions[_auctionId];\n        require(msg.sender != auctions[_auctionId].owner);\n\n        uint bidsLength = auctionBids[_auctionId].length;\n        uint256 tempAmount = myAuction.startPrice;\n        Bid memory lastBid;\n\n        if(bidsLength > 0) {\n            lastBid = auctionBids[_auctionId][bidsLength - 1];\n            tempAmount = lastBid.amount;\n        }\n        \n        if(ethAmountSent <= tempAmount)  revert();\n\n        if(bidsLength > 0) {\n            if(!payable(lastBid.from).send(lastBid.amount)) revert();\n        }\n\n        Bid memory newBid;\n        newBid.from = payable(msg.sender);\n        newBid.amount = ethAmountSent;\n        auctionBids[_auctionId].push(newBid);\n\n    }\n\n    function cancelAuction(uint _auctionId) public isOwner(_auctionId) {\n        uint bidsLength = auctionBids[_auctionId].length;\n\n        // if there are bids refund the last bid\n        if( bidsLength > 0 ) {\n            Bid memory lastBid = auctionBids[_auctionId][bidsLength - 1];\n            if(!payable(lastBid.from).send(lastBid.amount)) revert();\n        }\n        auctions[_auctionId].active = false;\n\n        // approve and transfer from this contract to auction owner\n        // if(approveAndTransfer(address(this), myAuction.owner, myAuction.deedRepositoryAddress, myAuction.deedId)){\n        //     auctions[_auctionId].active = false;\n        //     emit AuctionCanceled(msg.sender, _auctionId);\n        // }\n    }\n    function finaliseAuction(uint _auctionId) public isOwner(_auctionId) {\n            Auction memory myAuction = auctions[_auctionId];\n            uint bidsLength = auctionBids[_auctionId].length;\n            Bid memory lastBid;\n            address winner;\n            if(bidsLength > 0) {\n                 lastBid = auctionBids[_auctionId][bidsLength - 1];\n                 winner = lastBid.from;\n             }\n            address owner=myAuction.owner;\n            uint tokenId=myAuction.deedId;\n            DeedRepository(myAuction.deedRepositoryAddress).safeTransferFrom(owner,winner,tokenId);\n            auctions[_auctionId].finalized = true;\n            auctions[_auctionId].active = false;\n\n    }\n}",
  "sourcePath": "/Users/muntazir/Desktop/colg/Decentralized_market/contracts/AuctionRepository.sol",
  "compiler": {
    "name": "solc",
    "version": "0.8.7+commit.e28d00a7.Emscripten.clang"
  },
  "schemaVersion": "3.4.3",
  "updatedAt": "2021-12-04T16:07:27.912Z",
  "networkType": "ethereum",
  "devdoc": {
    "kind": "dev",
    "methods": {},
    "version": 1
  },
  "userdoc": {
    "kind": "user",
    "methods": {},
    "version": 1
  }
}