{
  "contractName": "DeedRepository",
  "abi": [
    {
      "inputs": [
        {
          "internalType": "string",
          "name": "_name",
          "type": "string"
        },
        {
          "internalType": "string",
          "name": "_symbol",
          "type": "string"
        }
      ],
      "stateMutability": "nonpayable",
      "type": "constructor"
    },
    {
      "anonymous": false,
      "inputs": [
        {
          "indexed": true,
          "internalType": "address",
          "name": "owner",
          "type": "address"
        },
        {
          "indexed": true,
          "internalType": "address",
          "name": "approved",
          "type": "address"
        },
        {
          "indexed": true,
          "internalType": "uint256",
          "name": "tokenId",
          "type": "uint256"
        }
      ],
      "name": "Approval",
      "type": "event"
    },
    {
      "anonymous": false,
      "inputs": [
        {
          "indexed": true,
          "internalType": "address",
          "name": "owner",
          "type": "address"
        },
        {
          "indexed": true,
          "internalType": "address",
          "name": "operator",
          "type": "address"
        },
        {
          "indexed": false,
          "internalType": "bool",
          "name": "approved",
          "type": "bool"
        }
      ],
      "name": "ApprovalForAll",
      "type": "event"
    },
    {
      "anonymous": false,
      "inputs": [
        {
          "indexed": false,
          "internalType": "address",
          "name": "_by",
          "type": "address"
        },
        {
          "indexed": false,
          "internalType": "uint256",
          "name": "_tokenId",
          "type": "uint256"
        }
      ],
      "name": "DeedRegistered",
      "type": "event"
    },
    {
      "anonymous": false,
      "inputs": [
        {
          "indexed": true,
          "internalType": "address",
          "name": "previousOwner",
          "type": "address"
        },
        {
          "indexed": true,
          "internalType": "address",
          "name": "newOwner",
          "type": "address"
        }
      ],
      "name": "OwnershipTransferred",
      "type": "event"
    },
    {
      "anonymous": false,
      "inputs": [
        {
          "indexed": true,
          "internalType": "address",
          "name": "from",
          "type": "address"
        },
        {
          "indexed": true,
          "internalType": "address",
          "name": "to",
          "type": "address"
        },
        {
          "indexed": true,
          "internalType": "uint256",
          "name": "tokenId",
          "type": "uint256"
        }
      ],
      "name": "Transfer",
      "type": "event"
    },
    {
      "inputs": [
        {
          "internalType": "address",
          "name": "to",
          "type": "address"
        },
        {
          "internalType": "uint256",
          "name": "tokenId",
          "type": "uint256"
        }
      ],
      "name": "approve",
      "outputs": [],
      "stateMutability": "nonpayable",
      "type": "function"
    },
    {
      "inputs": [
        {
          "internalType": "address",
          "name": "owner",
          "type": "address"
        }
      ],
      "name": "balanceOf",
      "outputs": [
        {
          "internalType": "uint256",
          "name": "",
          "type": "uint256"
        }
      ],
      "stateMutability": "view",
      "type": "function",
      "constant": true
    },
    {
      "inputs": [
        {
          "internalType": "uint256",
          "name": "tokenId",
          "type": "uint256"
        }
      ],
      "name": "getApproved",
      "outputs": [
        {
          "internalType": "address",
          "name": "",
          "type": "address"
        }
      ],
      "stateMutability": "view",
      "type": "function",
      "constant": true
    },
    {
      "inputs": [
        {
          "internalType": "address",
          "name": "owner",
          "type": "address"
        },
        {
          "internalType": "address",
          "name": "operator",
          "type": "address"
        }
      ],
      "name": "isApprovedForAll",
      "outputs": [
        {
          "internalType": "bool",
          "name": "",
          "type": "bool"
        }
      ],
      "stateMutability": "view",
      "type": "function",
      "constant": true
    },
    {
      "inputs": [],
      "name": "name",
      "outputs": [
        {
          "internalType": "string",
          "name": "",
          "type": "string"
        }
      ],
      "stateMutability": "view",
      "type": "function",
      "constant": true
    },
    {
      "inputs": [],
      "name": "owner",
      "outputs": [
        {
          "internalType": "address",
          "name": "",
          "type": "address"
        }
      ],
      "stateMutability": "view",
      "type": "function",
      "constant": true
    },
    {
      "inputs": [
        {
          "internalType": "uint256",
          "name": "tokenId",
          "type": "uint256"
        }
      ],
      "name": "ownerOf",
      "outputs": [
        {
          "internalType": "address",
          "name": "",
          "type": "address"
        }
      ],
      "stateMutability": "view",
      "type": "function",
      "constant": true
    },
    {
      "inputs": [],
      "name": "renounceOwnership",
      "outputs": [],
      "stateMutability": "nonpayable",
      "type": "function"
    },
    {
      "inputs": [
        {
          "internalType": "address",
          "name": "from",
          "type": "address"
        },
        {
          "internalType": "address",
          "name": "to",
          "type": "address"
        },
        {
          "internalType": "uint256",
          "name": "tokenId",
          "type": "uint256"
        }
      ],
      "name": "safeTransferFrom",
      "outputs": [],
      "stateMutability": "nonpayable",
      "type": "function"
    },
    {
      "inputs": [
        {
          "internalType": "address",
          "name": "from",
          "type": "address"
        },
        {
          "internalType": "address",
          "name": "to",
          "type": "address"
        },
        {
          "internalType": "uint256",
          "name": "tokenId",
          "type": "uint256"
        },
        {
          "internalType": "bytes",
          "name": "_data",
          "type": "bytes"
        }
      ],
      "name": "safeTransferFrom",
      "outputs": [],
      "stateMutability": "nonpayable",
      "type": "function"
    },
    {
      "inputs": [
        {
          "internalType": "address",
          "name": "operator",
          "type": "address"
        },
        {
          "internalType": "bool",
          "name": "approved",
          "type": "bool"
        }
      ],
      "name": "setApprovalForAll",
      "outputs": [],
      "stateMutability": "nonpayable",
      "type": "function"
    },
    {
      "inputs": [
        {
          "internalType": "bytes4",
          "name": "interfaceId",
          "type": "bytes4"
        }
      ],
      "name": "supportsInterface",
      "outputs": [
        {
          "internalType": "bool",
          "name": "",
          "type": "bool"
        }
      ],
      "stateMutability": "view",
      "type": "function",
      "constant": true
    },
    {
      "inputs": [],
      "name": "symbol",
      "outputs": [
        {
          "internalType": "string",
          "name": "",
          "type": "string"
        }
      ],
      "stateMutability": "view",
      "type": "function",
      "constant": true
    },
    {
      "inputs": [
        {
          "internalType": "address",
          "name": "from",
          "type": "address"
        },
        {
          "internalType": "address",
          "name": "to",
          "type": "address"
        },
        {
          "internalType": "uint256",
          "name": "tokenId",
          "type": "uint256"
        }
      ],
      "name": "transferFrom",
      "outputs": [],
      "stateMutability": "nonpayable",
      "type": "function"
    },
    {
      "inputs": [
        {
          "internalType": "address",
          "name": "newOwner",
          "type": "address"
        }
      ],
      "name": "transferOwnership",
      "outputs": [],
      "stateMutability": "nonpayable",
      "type": "function"
    },
    {
      "inputs": [
        {
          "internalType": "string",
          "name": "baseURI_",
          "type": "string"
        }
      ],
      "name": "setBaseURI",
      "outputs": [],
      "stateMutability": "nonpayable",
      "type": "function"
    },
    {
      "inputs": [
        {
          "internalType": "uint256",
          "name": "tokenId",
          "type": "uint256"
        }
      ],
      "name": "tokenURI",
      "outputs": [
        {
          "internalType": "string",
          "name": "",
          "type": "string"
        }
      ],
      "stateMutability": "view",
      "type": "function",
      "constant": true
    },
    {
      "inputs": [
        {
          "internalType": "address",
          "name": "_to",
          "type": "address"
        },
        {
          "internalType": "uint256",
          "name": "_tokenId",
          "type": "uint256"
        },
        {
          "internalType": "string",
          "name": "tokenURI_",
          "type": "string"
        }
      ],
      "name": "mint",
      "outputs": [],
      "stateMutability": "nonpayable",
      "type": "function"
    },
    {
      "inputs": [
        {
          "internalType": "uint256",
          "name": "_tokenId",
          "type": "uint256"
        },
        {
          "internalType": "string",
          "name": "_uri",
          "type": "string"
        }
      ],
      "name": "registerDeed",
      "outputs": [],
      "stateMutability": "nonpayable",
      "type": "function"
    },
    {
      "inputs": [
        {
          "internalType": "uint256",
          "name": "_tokenId",
          "type": "uint256"
        },
        {
          "internalType": "string",
          "name": "_uri",
          "type": "string"
        }
      ],
      "name": "addDeedMetadata",
      "outputs": [
        {
          "internalType": "bool",
          "name": "",
          "type": "bool"
        }
      ],
      "stateMutability": "nonpayable",
      "type": "function"
    }
  ],
  "bytecode": "0x60806040523480156200001157600080fd5b506040516200361238038062003612833981810160405281019062000037919062000291565b818181600090805190602001906200005192919062000163565b5080600190805190602001906200006a92919062000163565b5050506200008d620000816200009560201b60201c565b6200009d60201b60201c565b50506200049a565b600033905090565b6000600660009054906101000a900473ffffffffffffffffffffffffffffffffffffffff16905081600660006101000a81548173ffffffffffffffffffffffffffffffffffffffff021916908373ffffffffffffffffffffffffffffffffffffffff1602179055508173ffffffffffffffffffffffffffffffffffffffff168173ffffffffffffffffffffffffffffffffffffffff167f8be0079c531659141344cd1fd0a4f28419497f9722a3daafe3b4186f6b6457e060405160405180910390a35050565b8280546200017190620003ab565b90600052602060002090601f016020900481019282620001955760008555620001e1565b82601f10620001b057805160ff1916838001178555620001e1565b82800160010185558215620001e1579182015b82811115620001e0578251825591602001919060010190620001c3565b5b509050620001f09190620001f4565b5090565b5b808211156200020f576000816000905550600101620001f5565b5090565b60006200022a62000224846200033f565b62000316565b9050828152602081018484840111156200024957620002486200047a565b5b6200025684828562000375565b509392505050565b600082601f83011262000276576200027562000475565b5b81516200028884826020860162000213565b91505092915050565b60008060408385031215620002ab57620002aa62000484565b5b600083015167ffffffffffffffff811115620002cc57620002cb6200047f565b5b620002da858286016200025e565b925050602083015167ffffffffffffffff811115620002fe57620002fd6200047f565b5b6200030c858286016200025e565b9150509250929050565b60006200032262000335565b9050620003308282620003e1565b919050565b6000604051905090565b600067ffffffffffffffff8211156200035d576200035c62000446565b5b620003688262000489565b9050602081019050919050565b60005b838110156200039557808201518184015260208101905062000378565b83811115620003a5576000848401525b50505050565b60006002820490506001821680620003c457607f821691505b60208210811415620003db57620003da62000417565b5b50919050565b620003ec8262000489565b810181811067ffffffffffffffff821117156200040e576200040d62000446565b5b80604052505050565b7f4e487b7100000000000000000000000000000000000000000000000000000000600052602260045260246000fd5b7f4e487b7100000000000000000000000000000000000000000000000000000000600052604160045260246000fd5b600080fd5b600080fd5b600080fd5b600080fd5b6000601f19601f8301169050919050565b61316880620004aa6000396000f3fe608060405234801561001057600080fd5b506004361061012c5760003560e01c80638da5cb5b116100ad578063d3fc986411610071578063d3fc98641461032d578063da55603314610349578063e985e9c514610379578063f2fde38b146103a9578063f72439dd146103c55761012c565b80638da5cb5b1461028957806395d89b41146102a7578063a22cb465146102c5578063b88d4fde146102e1578063c87b56dd146102fd5761012c565b806342842e0e116100f457806342842e0e146101e757806355f804b3146102035780636352211e1461021f57806370a082311461024f578063715018a61461027f5761012c565b806301ffc9a71461013157806306fdde0314610161578063081812fc1461017f578063095ea7b3146101af57806323b872dd146101cb575b600080fd5b61014b6004803603810190610146919061208c565b6103e1565b604051610158919061258f565b60405180910390f35b6101696104c3565b60405161017691906125aa565b60405180910390f35b6101996004803603810190610194919061212f565b610555565b6040516101a691906124ff565b60405180910390f35b6101c960048036038101906101c49190611fdd565b6105da565b005b6101e560048036038101906101e09190611ec7565b6106f2565b005b61020160048036038101906101fc9190611ec7565b610752565b005b61021d600480360381019061021891906120e6565b610772565b005b6102396004803603810190610234919061212f565b610808565b60405161024691906124ff565b60405180910390f35b61026960048036038101906102649190611e5a565b6108ba565b60405161027691906127ec565b60405180910390f35b610287610972565b005b6102916109fa565b60405161029e91906124ff565b60405180910390f35b6102af610a24565b6040516102bc91906125aa565b60405180910390f35b6102df60048036038101906102da9190611f9d565b610ab6565b005b6102fb60048036038101906102f69190611f1a565b610acc565b005b6103176004803603810190610312919061212f565b610b2e565b60405161032491906125aa565b60405180910390f35b6103476004803603810190610342919061201d565b610ca1565b005b610363600480360381019061035e919061215c565b610d36565b604051610370919061258f565b60405180910390f35b610393600480360381019061038e9190611e87565b610d4c565b6040516103a0919061258f565b60405180910390f35b6103c360048036038101906103be9190611e5a565b610de0565b005b6103df60048036038101906103da919061215c565b610ed8565b005b60007f80ac58cd000000000000000000000000000000000000000000000000000000007bffffffffffffffffffffffffffffffffffffffffffffffffffffffff1916827bffffffffffffffffffffffffffffffffffffffffffffffffffffffff191614806104ac57507f5b5e139f000000000000000000000000000000000000000000000000000000007bffffffffffffffffffffffffffffffffffffffffffffffffffffffff1916827bffffffffffffffffffffffffffffffffffffffffffffffffffffffff1916145b806104bc57506104bb82610f2a565b5b9050919050565b6060600080546104d290612a42565b80601f01602080910402602001604051908101604052809291908181526020018280546104fe90612a42565b801561054b5780601f106105205761010080835404028352916020019161054b565b820191906000526020600020905b81548152906001019060200180831161052e57829003601f168201915b5050505050905090565b600061056082610f94565b61059f576040517f08c379a00000000000000000000000000000000000000000000000000000000081526004016105969061270c565b60405180910390fd5b6004600083815260200190815260200160002060009054906101000a900473ffffffffffffffffffffffffffffffffffffffff169050919050565b60006105e582610808565b90508073ffffffffffffffffffffffffffffffffffffffff168373ffffffffffffffffffffffffffffffffffffffff161415610656576040517f08c379a000000000000000000000000000000000000000000000000000000000815260040161064d906127ac565b60405180910390fd5b8073ffffffffffffffffffffffffffffffffffffffff16610675611000565b73ffffffffffffffffffffffffffffffffffffffff1614806106a457506106a38161069e611000565b610d4c565b5b6106e3576040517f08c379a00000000000000000000000000000000000000000000000000000000081526004016106da9061268c565b60405180910390fd5b6106ed8383611008565b505050565b6107036106fd611000565b826110c1565b610742576040517f08c379a0000000000000000000000000000000000000000000000000000000008152600401610739906127cc565b60405180910390fd5b61074d83838361119f565b505050565b61076d83838360405180602001604052806000815250610acc565b505050565b61077a611000565b73ffffffffffffffffffffffffffffffffffffffff166107986109fa565b73ffffffffffffffffffffffffffffffffffffffff16146107ee576040517f08c379a00000000000000000000000000000000000000000000000000000000081526004016107e59061274c565b60405180910390fd5b8060089080519060200190610804929190611c6e565b5050565b6000806002600084815260200190815260200160002060009054906101000a900473ffffffffffffffffffffffffffffffffffffffff169050600073ffffffffffffffffffffffffffffffffffffffff168173ffffffffffffffffffffffffffffffffffffffff1614156108b1576040517f08c379a00000000000000000000000000000000000000000000000000000000081526004016108a8906126cc565b60405180910390fd5b80915050919050565b60008073ffffffffffffffffffffffffffffffffffffffff168273ffffffffffffffffffffffffffffffffffffffff16141561092b576040517f08c379a0000000000000000000000000000000000000000000000000000000008152600401610922906126ac565b60405180910390fd5b600360008373ffffffffffffffffffffffffffffffffffffffff1673ffffffffffffffffffffffffffffffffffffffff168152602001908152602001600020549050919050565b61097a611000565b73ffffffffffffffffffffffffffffffffffffffff166109986109fa565b73ffffffffffffffffffffffffffffffffffffffff16146109ee576040517f08c379a00000000000000000000000000000000000000000000000000000000081526004016109e59061274c565b60405180910390fd5b6109f860006113fb565b565b6000600660009054906101000a900473ffffffffffffffffffffffffffffffffffffffff16905090565b606060018054610a3390612a42565b80601f0160208091040260200160405190810160405280929190818152602001828054610a5f90612a42565b8015610aac5780601f10610a8157610100808354040283529160200191610aac565b820191906000526020600020905b815481529060010190602001808311610a8f57829003601f168201915b5050505050905090565b610ac8610ac1611000565b83836114c1565b5050565b610add610ad7611000565b836110c1565b610b1c576040517f08c379a0000000000000000000000000000000000000000000000000000000008152600401610b13906127cc565b60405180910390fd5b610b288484848461162e565b50505050565b6060610b3982610f94565b610b78576040517f08c379a0000000000000000000000000000000000000000000000000000000008152600401610b6f9061278c565b60405180910390fd5b6000600760008481526020019081526020016000208054610b9890612a42565b80601f0160208091040260200160405190810160405280929190818152602001828054610bc490612a42565b8015610c115780601f10610be657610100808354040283529160200191610c11565b820191906000526020600020905b815481529060010190602001808311610bf457829003601f168201915b505050505090506000610c2261168a565b9050600081511415610c38578192505050610c9c565b600082511115610c6d578082604051602001610c559291906124db565b60405160208183030381529060405292505050610c9c565b80610c778561171c565b604051602001610c889291906124db565b604051602081830303815290604052925050505b919050565b610ca9611000565b73ffffffffffffffffffffffffffffffffffffffff16610cc76109fa565b73ffffffffffffffffffffffffffffffffffffffff1614610d1d576040517f08c379a0000000000000000000000000000000000000000000000000000000008152600401610d149061274c565b60405180910390fd5b610d27838361187d565b610d318282611a4b565b505050565b6000610d428383611a4b565b6001905092915050565b6000600560008473ffffffffffffffffffffffffffffffffffffffff1673ffffffffffffffffffffffffffffffffffffffff16815260200190815260200160002060008373ffffffffffffffffffffffffffffffffffffffff1673ffffffffffffffffffffffffffffffffffffffff16815260200190815260200160002060009054906101000a900460ff16905092915050565b610de8611000565b73ffffffffffffffffffffffffffffffffffffffff16610e066109fa565b73ffffffffffffffffffffffffffffffffffffffff1614610e5c576040517f08c379a0000000000000000000000000000000000000000000000000000000008152600401610e539061274c565b60405180910390fd5b600073ffffffffffffffffffffffffffffffffffffffff168173ffffffffffffffffffffffffffffffffffffffff161415610ecc576040517f08c379a0000000000000000000000000000000000000000000000000000000008152600401610ec3906125ec565b60405180910390fd5b610ed5816113fb565b50565b610ee2338361187d565b610eec8282610d36565b507f32cc5b866d6a5990a7f987020b639157969cb963b9beb2cdf41df22ab152df353383604051610f1e929190612566565b60405180910390a15050565b60007f01ffc9a7000000000000000000000000000000000000000000000000000000007bffffffffffffffffffffffffffffffffffffffffffffffffffffffff1916827bffffffffffffffffffffffffffffffffffffffffffffffffffffffff1916149050919050565b60008073ffffffffffffffffffffffffffffffffffffffff166002600084815260200190815260200160002060009054906101000a900473ffffffffffffffffffffffffffffffffffffffff1673ffffffffffffffffffffffffffffffffffffffff1614159050919050565b600033905090565b816004600083815260200190815260200160002060006101000a81548173ffffffffffffffffffffffffffffffffffffffff021916908373ffffffffffffffffffffffffffffffffffffffff160217905550808273ffffffffffffffffffffffffffffffffffffffff1661107b83610808565b73ffffffffffffffffffffffffffffffffffffffff167f8c5be1e5ebec7d5bd14f71427d1e84f3dd0314c0f7b2291e5b200ac8c7c3b92560405160405180910390a45050565b60006110cc82610f94565b61110b576040517f08c379a00000000000000000000000000000000000000000000000000000000081526004016111029061266c565b60405180910390fd5b600061111683610808565b90508073ffffffffffffffffffffffffffffffffffffffff168473ffffffffffffffffffffffffffffffffffffffff16148061118557508373ffffffffffffffffffffffffffffffffffffffff1661116d84610555565b73ffffffffffffffffffffffffffffffffffffffff16145b8061119657506111958185610d4c565b5b91505092915050565b8273ffffffffffffffffffffffffffffffffffffffff166111bf82610808565b73ffffffffffffffffffffffffffffffffffffffff1614611215576040517f08c379a000000000000000000000000000000000000000000000000000000000815260040161120c9061276c565b60405180910390fd5b600073ffffffffffffffffffffffffffffffffffffffff168273ffffffffffffffffffffffffffffffffffffffff161415611285576040517f08c379a000000000000000000000000000000000000000000000000000000000815260040161127c9061262c565b60405180910390fd5b611290838383611abf565b61129b600082611008565b6001600360008573ffffffffffffffffffffffffffffffffffffffff1673ffffffffffffffffffffffffffffffffffffffff16815260200190815260200160002060008282546112eb9190612958565b925050819055506001600360008473ffffffffffffffffffffffffffffffffffffffff1673ffffffffffffffffffffffffffffffffffffffff168152602001908152602001600020600082825461134291906128d1565b92505081905550816002600083815260200190815260200160002060006101000a81548173ffffffffffffffffffffffffffffffffffffffff021916908373ffffffffffffffffffffffffffffffffffffffff160217905550808273ffffffffffffffffffffffffffffffffffffffff168473ffffffffffffffffffffffffffffffffffffffff167fddf252ad1be2c89b69c2b068fc378daa952ba7f163c4a11628f55a4df523b3ef60405160405180910390a4505050565b6000600660009054906101000a900473ffffffffffffffffffffffffffffffffffffffff16905081600660006101000a81548173ffffffffffffffffffffffffffffffffffffffff021916908373ffffffffffffffffffffffffffffffffffffffff1602179055508173ffffffffffffffffffffffffffffffffffffffff168173ffffffffffffffffffffffffffffffffffffffff167f8be0079c531659141344cd1fd0a4f28419497f9722a3daafe3b4186f6b6457e060405160405180910390a35050565b8173ffffffffffffffffffffffffffffffffffffffff168373ffffffffffffffffffffffffffffffffffffffff161415611530576040517f08c379a00000000000000000000000000000000000000000000000000000000081526004016115279061264c565b60405180910390fd5b80600560008573ffffffffffffffffffffffffffffffffffffffff1673ffffffffffffffffffffffffffffffffffffffff16815260200190815260200160002060008473ffffffffffffffffffffffffffffffffffffffff1673ffffffffffffffffffffffffffffffffffffffff16815260200190815260200160002060006101000a81548160ff0219169083151502179055508173ffffffffffffffffffffffffffffffffffffffff168373ffffffffffffffffffffffffffffffffffffffff167f17307eab39ab6107e8899845ad3d59bd9653f200f220920489ca2b5937696c3183604051611621919061258f565b60405180910390a3505050565b61163984848461119f565b61164584848484611ac4565b611684576040517f08c379a000000000000000000000000000000000000000000000000000000000815260040161167b906125cc565b60405180910390fd5b50505050565b60606008805461169990612a42565b80601f01602080910402602001604051908101604052809291908181526020018280546116c590612a42565b80156117125780601f106116e757610100808354040283529160200191611712565b820191906000526020600020905b8154815290600101906020018083116116f557829003601f168201915b5050505050905090565b60606000821415611764576040518060400160405280600181526020017f30000000000000000000000000000000000000000000000000000000000000008152509050611878565b600082905060005b6000821461179657808061177f90612aa5565b915050600a8261178f9190612927565b915061176c565b60008167ffffffffffffffff8111156117b2576117b1612bdb565b5b6040519080825280601f01601f1916602001820160405280156117e45781602001600182028036833780820191505090505b5090505b60008514611871576001826117fd9190612958565b9150600a8561180c9190612aee565b603061181891906128d1565b60f81b81838151811061182e5761182d612bac565b5b60200101907effffffffffffffffffffffffffffffffffffffffffffffffffffffffffffff1916908160001a905350600a8561186a9190612927565b94506117e8565b8093505050505b919050565b600073ffffffffffffffffffffffffffffffffffffffff168273ffffffffffffffffffffffffffffffffffffffff1614156118ed576040517f08c379a00000000000000000000000000000000000000000000000000000000081526004016118e4906126ec565b60405180910390fd5b6118f681610f94565b15611936576040517f08c379a000000000000000000000000000000000000000000000000000000000815260040161192d9061260c565b60405180910390fd5b61194260008383611abf565b6001600360008473ffffffffffffffffffffffffffffffffffffffff1673ffffffffffffffffffffffffffffffffffffffff168152602001908152602001600020600082825461199291906128d1565b92505081905550816002600083815260200190815260200160002060006101000a81548173ffffffffffffffffffffffffffffffffffffffff021916908373ffffffffffffffffffffffffffffffffffffffff160217905550808273ffffffffffffffffffffffffffffffffffffffff16600073ffffffffffffffffffffffffffffffffffffffff167fddf252ad1be2c89b69c2b068fc378daa952ba7f163c4a11628f55a4df523b3ef60405160405180910390a45050565b611a5482610f94565b611a93576040517f08c379a0000000000000000000000000000000000000000000000000000000008152600401611a8a9061272c565b60405180910390fd5b80600760008481526020019081526020016000209080519060200190611aba929190611c6e565b505050565b505050565b6000611ae58473ffffffffffffffffffffffffffffffffffffffff16611c5b565b15611c4e578373ffffffffffffffffffffffffffffffffffffffff1663150b7a02611b0e611000565b8786866040518563ffffffff1660e01b8152600401611b30949392919061251a565b602060405180830381600087803b158015611b4a57600080fd5b505af1925050508015611b7b57506040513d601f19601f82011682018060405250810190611b7891906120b9565b60015b611bfe573d8060008114611bab576040519150601f19603f3d011682016040523d82523d6000602084013e611bb0565b606091505b50600081511415611bf6576040517f08c379a0000000000000000000000000000000000000000000000000000000008152600401611bed906125cc565b60405180910390fd5b805181602001fd5b63150b7a0260e01b7bffffffffffffffffffffffffffffffffffffffffffffffffffffffff1916817bffffffffffffffffffffffffffffffffffffffffffffffffffffffff191614915050611c53565b600190505b949350505050565b600080823b905060008111915050919050565b828054611c7a90612a42565b90600052602060002090601f016020900481019282611c9c5760008555611ce3565b82601f10611cb557805160ff1916838001178555611ce3565b82800160010185558215611ce3579182015b82811115611ce2578251825591602001919060010190611cc7565b5b509050611cf09190611cf4565b5090565b5b80821115611d0d576000816000905550600101611cf5565b5090565b6000611d24611d1f8461282c565b612807565b905082815260208101848484011115611d4057611d3f612c0f565b5b611d4b848285612a00565b509392505050565b6000611d66611d618461285d565b612807565b905082815260208101848484011115611d8257611d81612c0f565b5b611d8d848285612a00565b509392505050565b600081359050611da4816130d6565b92915050565b600081359050611db9816130ed565b92915050565b600081359050611dce81613104565b92915050565b600081519050611de381613104565b92915050565b600082601f830112611dfe57611dfd612c0a565b5b8135611e0e848260208601611d11565b91505092915050565b600082601f830112611e2c57611e2b612c0a565b5b8135611e3c848260208601611d53565b91505092915050565b600081359050611e548161311b565b92915050565b600060208284031215611e7057611e6f612c19565b5b6000611e7e84828501611d95565b91505092915050565b60008060408385031215611e9e57611e9d612c19565b5b6000611eac85828601611d95565b9250506020611ebd85828601611d95565b9150509250929050565b600080600060608486031215611ee057611edf612c19565b5b6000611eee86828701611d95565b9350506020611eff86828701611d95565b9250506040611f1086828701611e45565b9150509250925092565b60008060008060808587031215611f3457611f33612c19565b5b6000611f4287828801611d95565b9450506020611f5387828801611d95565b9350506040611f6487828801611e45565b925050606085013567ffffffffffffffff811115611f8557611f84612c14565b5b611f9187828801611de9565b91505092959194509250565b60008060408385031215611fb457611fb3612c19565b5b6000611fc285828601611d95565b9250506020611fd385828601611daa565b9150509250929050565b60008060408385031215611ff457611ff3612c19565b5b600061200285828601611d95565b925050602061201385828601611e45565b9150509250929050565b60008060006060848603121561203657612035612c19565b5b600061204486828701611d95565b935050602061205586828701611e45565b925050604084013567ffffffffffffffff81111561207657612075612c14565b5b61208286828701611e17565b9150509250925092565b6000602082840312156120a2576120a1612c19565b5b60006120b084828501611dbf565b91505092915050565b6000602082840312156120cf576120ce612c19565b5b60006120dd84828501611dd4565b91505092915050565b6000602082840312156120fc576120fb612c19565b5b600082013567ffffffffffffffff81111561211a57612119612c14565b5b61212684828501611e17565b91505092915050565b60006020828403121561214557612144612c19565b5b600061215384828501611e45565b91505092915050565b6000806040838503121561217357612172612c19565b5b600061218185828601611e45565b925050602083013567ffffffffffffffff8111156121a2576121a1612c14565b5b6121ae85828601611e17565b9150509250929050565b6121c18161298c565b82525050565b6121d08161299e565b82525050565b60006121e18261288e565b6121eb81856128a4565b93506121fb818560208601612a0f565b61220481612c1e565b840191505092915050565b600061221a82612899565b61222481856128b5565b9350612234818560208601612a0f565b61223d81612c1e565b840191505092915050565b600061225382612899565b61225d81856128c6565b935061226d818560208601612a0f565b80840191505092915050565b60006122866032836128b5565b915061229182612c2f565b604082019050919050565b60006122a96026836128b5565b91506122b482612c7e565b604082019050919050565b60006122cc601c836128b5565b91506122d782612ccd565b602082019050919050565b60006122ef6024836128b5565b91506122fa82612cf6565b604082019050919050565b60006123126019836128b5565b915061231d82612d45565b602082019050919050565b6000612335602c836128b5565b915061234082612d6e565b604082019050919050565b60006123586038836128b5565b915061236382612dbd565b604082019050919050565b600061237b602a836128b5565b915061238682612e0c565b604082019050919050565b600061239e6029836128b5565b91506123a982612e5b565b604082019050919050565b60006123c16020836128b5565b91506123cc82612eaa565b602082019050919050565b60006123e4602c836128b5565b91506123ef82612ed3565b604082019050919050565b6000612407602c836128b5565b915061241282612f22565b604082019050919050565b600061242a6020836128b5565b915061243582612f71565b602082019050919050565b600061244d6029836128b5565b915061245882612f9a565b604082019050919050565b6000612470602f836128b5565b915061247b82612fe9565b604082019050919050565b60006124936021836128b5565b915061249e82613038565b604082019050919050565b60006124b66031836128b5565b91506124c182613087565b604082019050919050565b6124d5816129f6565b82525050565b60006124e78285612248565b91506124f38284612248565b91508190509392505050565b600060208201905061251460008301846121b8565b92915050565b600060808201905061252f60008301876121b8565b61253c60208301866121b8565b61254960408301856124cc565b818103606083015261255b81846121d6565b905095945050505050565b600060408201905061257b60008301856121b8565b61258860208301846124cc565b9392505050565b60006020820190506125a460008301846121c7565b92915050565b600060208201905081810360008301526125c4818461220f565b905092915050565b600060208201905081810360008301526125e581612279565b9050919050565b600060208201905081810360008301526126058161229c565b9050919050565b60006020820190508181036000830152612625816122bf565b9050919050565b60006020820190508181036000830152612645816122e2565b9050919050565b6000602082019050818103600083015261266581612305565b9050919050565b6000602082019050818103600083015261268581612328565b9050919050565b600060208201905081810360008301526126a58161234b565b9050919050565b600060208201905081810360008301526126c58161236e565b9050919050565b600060208201905081810360008301526126e581612391565b9050919050565b60006020820190508181036000830152612705816123b4565b9050919050565b60006020820190508181036000830152612725816123d7565b9050919050565b60006020820190508181036000830152612745816123fa565b9050919050565b600060208201905081810360008301526127658161241d565b9050919050565b6000602082019050818103600083015261278581612440565b9050919050565b600060208201905081810360008301526127a581612463565b9050919050565b600060208201905081810360008301526127c581612486565b9050919050565b600060208201905081810360008301526127e5816124a9565b9050919050565b600060208201905061280160008301846124cc565b92915050565b6000612811612822565b905061281d8282612a74565b919050565b6000604051905090565b600067ffffffffffffffff82111561284757612846612bdb565b5b61285082612c1e565b9050602081019050919050565b600067ffffffffffffffff82111561287857612877612bdb565b5b61288182612c1e565b9050602081019050919050565b600081519050919050565b600081519050919050565b600082825260208201905092915050565b600082825260208201905092915050565b600081905092915050565b60006128dc826129f6565b91506128e7836129f6565b9250827fffffffffffffffffffffffffffffffffffffffffffffffffffffffffffffffff0382111561291c5761291b612b1f565b5b828201905092915050565b6000612932826129f6565b915061293d836129f6565b92508261294d5761294c612b4e565b5b828204905092915050565b6000612963826129f6565b915061296e836129f6565b92508282101561298157612980612b1f565b5b828203905092915050565b6000612997826129d6565b9050919050565b60008115159050919050565b60007fffffffff0000000000000000000000000000000000000000000000000000000082169050919050565b600073ffffffffffffffffffffffffffffffffffffffff82169050919050565b6000819050919050565b82818337600083830152505050565b60005b83811015612a2d578082015181840152602081019050612a12565b83811115612a3c576000848401525b50505050565b60006002820490506001821680612a5a57607f821691505b60208210811415612a6e57612a6d612b7d565b5b50919050565b612a7d82612c1e565b810181811067ffffffffffffffff82111715612a9c57612a9b612bdb565b5b80604052505050565b6000612ab0826129f6565b91507fffffffffffffffffffffffffffffffffffffffffffffffffffffffffffffffff821415612ae357612ae2612b1f565b5b600182019050919050565b6000612af9826129f6565b9150612b04836129f6565b925082612b1457612b13612b4e565b5b828206905092915050565b7f4e487b7100000000000000000000000000000000000000000000000000000000600052601160045260246000fd5b7f4e487b7100000000000000000000000000000000000000000000000000000000600052601260045260246000fd5b7f4e487b7100000000000000000000000000000000000000000000000000000000600052602260045260246000fd5b7f4e487b7100000000000000000000000000000000000000000000000000000000600052603260045260246000fd5b7f4e487b7100000000000000000000000000000000000000000000000000000000600052604160045260246000fd5b600080fd5b600080fd5b600080fd5b600080fd5b6000601f19601f8301169050919050565b7f4552433732313a207472616e7366657220746f206e6f6e20455243373231526560008201527f63656976657220696d706c656d656e7465720000000000000000000000000000602082015250565b7f4f776e61626c653a206e6577206f776e657220697320746865207a65726f206160008201527f6464726573730000000000000000000000000000000000000000000000000000602082015250565b7f4552433732313a20746f6b656e20616c7265616479206d696e74656400000000600082015250565b7f4552433732313a207472616e7366657220746f20746865207a65726f2061646460008201527f7265737300000000000000000000000000000000000000000000000000000000602082015250565b7f4552433732313a20617070726f766520746f2063616c6c657200000000000000600082015250565b7f4552433732313a206f70657261746f7220717565727920666f72206e6f6e657860008201527f697374656e7420746f6b656e0000000000000000000000000000000000000000602082015250565b7f4552433732313a20617070726f76652063616c6c6572206973206e6f74206f7760008201527f6e6572206e6f7220617070726f76656420666f7220616c6c0000000000000000602082015250565b7f4552433732313a2062616c616e636520717565727920666f7220746865207a6560008201527f726f206164647265737300000000000000000000000000000000000000000000602082015250565b7f4552433732313a206f776e657220717565727920666f72206e6f6e657869737460008201527f656e7420746f6b656e0000000000000000000000000000000000000000000000602082015250565b7f4552433732313a206d696e7420746f20746865207a65726f2061646472657373600082015250565b7f4552433732313a20617070726f76656420717565727920666f72206e6f6e657860008201527f697374656e7420746f6b656e0000000000000000000000000000000000000000602082015250565b7f4552433732314d657461646174613a2055524920736574206f66206e6f6e657860008201527f697374656e7420746f6b656e0000000000000000000000000000000000000000602082015250565b7f4f776e61626c653a2063616c6c6572206973206e6f7420746865206f776e6572600082015250565b7f4552433732313a207472616e73666572206f6620746f6b656e2074686174206960008201527f73206e6f74206f776e0000000000000000000000000000000000000000000000602082015250565b7f4552433732314d657461646174613a2055524920717565727920666f72206e6f60008201527f6e6578697374656e7420746f6b656e0000000000000000000000000000000000602082015250565b7f4552433732313a20617070726f76616c20746f2063757272656e74206f776e6560008201527f7200000000000000000000000000000000000000000000000000000000000000602082015250565b7f4552433732313a207472616e736665722063616c6c6572206973206e6f74206f60008201527f776e6572206e6f7220617070726f766564000000000000000000000000000000602082015250565b6130df8161298c565b81146130ea57600080fd5b50565b6130f68161299e565b811461310157600080fd5b50565b61310d816129aa565b811461311857600080fd5b50565b613124816129f6565b811461312f57600080fd5b5056fea26469706673582212208bd8bd3b2899f6bb71993740dfd065601f932513d254691b58e39e9efbaa3a2564736f6c63430008070033",
  "immutableReferences": {},
  "source": "// SPDX-License-Identifier: GPL-3.0\n\npragma solidity >=0.7.0 <0.9.0;\n\nimport \"../.deps/github/OpenZeppelin/openzeppelin-contracts/contracts/token/ERC721/ERC721.sol\";\nimport \"../.deps/github/OpenZeppelin/openzeppelin-contracts/contracts/access/Ownable.sol\";\n// import \"https://github.com/OpenZeppelin/openzeppelin-contracts/blob/master/contracts/token/ERC721/ERC721.sol\";\n// import \"https://github.com/OpenZeppelin/openzeppelin-contracts/blob/master/contracts/access/Ownable.sol\";\n\n\n\n/**\n * @title Repository of ERC721 Deeds\n * This contract contains the list of deeds registered by users.\n * This is a demo to show how tokens(deeds) can be mint and add to the repository\n */\ncontract DeedRepository is ERC721, Ownable {\n    \n    using Strings for uint256;\n    \n    // Optional mapping for token URIs\n    mapping (uint256 => string) private _tokenURIs;\n\n    // Base URI\n    string private _baseURIextended;\n\n\n    /**\n    * @dev Created a DeedRepository with a name and symbol\n    * @param _name string represents the name of the repository\n    * @param _symbol string represents the symbol of the repositor\n    */\n    constructor(string memory _name, string memory _symbol)\n        ERC721(_name, _symbol)\n    {}\n    \n    function setBaseURI(string memory baseURI_) external onlyOwner() {\n        _baseURIextended = baseURI_;\n    }\n    \n    function _setTokenURI(uint256 tokenId, string memory _tokenURI) internal virtual {\n        require(_exists(tokenId), \"ERC721Metadata: URI set of nonexistent token\");\n        _tokenURIs[tokenId] = _tokenURI;\n    }\n    \n    function _baseURI() internal view virtual override returns (string memory) {\n        return _baseURIextended;\n    }\n    \n    function tokenURI(uint256 tokenId) public view virtual override returns (string memory) {\n        require(_exists(tokenId), \"ERC721Metadata: URI query for nonexistent token\");\n\n        string memory _tokenURI = _tokenURIs[tokenId];\n        string memory base = _baseURI();\n        \n        // If there is no base URI, return the token URI.\n        if (bytes(base).length == 0) {\n            return _tokenURI;\n        }\n        // If both are set, concatenate the baseURI and tokenURI (via abi.encodePacked).\n        if (bytes(_tokenURI).length > 0) {\n            return string(abi.encodePacked(base, _tokenURI));\n        }\n        // If there is a baseURI but no tokenURI, concatenate the tokenID to the baseURI.\n        return string(abi.encodePacked(base, tokenId.toString()));\n    }\n    \n\n    function mint(\n        address _to,\n        uint256 _tokenId,\n        string memory tokenURI_\n    ) external onlyOwner() {\n        _mint(_to, _tokenId);\n        _setTokenURI(_tokenId, tokenURI_);\n    }\n    \n    \n    \n    \n    \n    \n\n\n    \n    \n    /**\n    * @dev Public function to register a new deed\n    * @dev Call the ERC721Token Minter\n    * @param _tokenId uint256 represents a specific deed\n    * @param _uri string containing metadata/uri\n    */\n    function registerDeed(uint256 _tokenId, string memory _uri) public {\n        _mint(msg.sender, _tokenId);\n        addDeedMetadata(_tokenId, _uri);\n        // _mint(msg.sender, _tokenId, _uri);\n        emit DeedRegistered(msg.sender, _tokenId);\n    }\n    \n\n    /**\n    * @dev Public function to add metadata to a deed\n    * @param _tokenId represents a specific deed\n    * @param _uri text which describes the characteristics of a given deed\n    * @return whether the deed metadata was added to the repository\n    */\n    function addDeedMetadata(uint256 _tokenId, string memory _uri) public returns(bool){\n        _setTokenURI(_tokenId, _uri);\n        return true;\n    }\n\n    /**\n    * @dev Event is triggered if deed/token is registered\n    * @param _by address of the registrar\n    * @param _tokenId uint256 represents a specific deed\n    */\n    event DeedRegistered(address _by, uint256 _tokenId);\n    \n}",
  "sourcePath": "/Users/muntazir/Desktop/colg/Decentralized_market/contracts/DeedRepository.sol",
  "compiler": {
    "name": "solc",
    "version": "0.8.7+commit.e28d00a7.Emscripten.clang"
  },
  "schemaVersion": "3.4.3",
  "updatedAt": "2021-12-04T16:07:27.948Z",
  "networkType": "ethereum",
  "devdoc": {
    "events": {
      "DeedRegistered(address,uint256)": {
        "details": "Event is triggered if deed/token is registered",
        "params": {
          "_by": "address of the registrar",
          "_tokenId": "uint256 represents a specific deed"
        }
      }
    },
    "kind": "dev",
    "methods": {
      "addDeedMetadata(uint256,string)": {
        "details": "Public function to add metadata to a deed",
        "params": {
          "_tokenId": "represents a specific deed",
          "_uri": "text which describes the characteristics of a given deed"
        },
        "returns": {
          "_0": "whether the deed metadata was added to the repository"
        }
      },
      "approve(address,uint256)": {
        "details": "See {IERC721-approve}."
      },
      "balanceOf(address)": {
        "details": "See {IERC721-balanceOf}."
      },
      "constructor": {
        "details": "Created a DeedRepository with a name and symbol",
        "params": {
          "_name": "string represents the name of the repository",
          "_symbol": "string represents the symbol of the repositor"
        }
      },
      "getApproved(uint256)": {
        "details": "See {IERC721-getApproved}."
      },
      "isApprovedForAll(address,address)": {
        "details": "See {IERC721-isApprovedForAll}."
      },
      "name()": {
        "details": "See {IERC721Metadata-name}."
      },
      "owner()": {
        "details": "Returns the address of the current owner."
      },
      "ownerOf(uint256)": {
        "details": "See {IERC721-ownerOf}."
      },
      "registerDeed(uint256,string)": {
        "details": "Public function to register a new deedCall the ERC721Token Minter",
        "params": {
          "_tokenId": "uint256 represents a specific deed",
          "_uri": "string containing metadata/uri"
        }
      },
      "renounceOwnership()": {
        "details": "Leaves the contract without owner. It will not be possible to call `onlyOwner` functions anymore. Can only be called by the current owner. NOTE: Renouncing ownership will leave the contract without an owner, thereby removing any functionality that is only available to the owner."
      },
      "safeTransferFrom(address,address,uint256)": {
        "details": "See {IERC721-safeTransferFrom}."
      },
      "safeTransferFrom(address,address,uint256,bytes)": {
        "details": "See {IERC721-safeTransferFrom}."
      },
      "setApprovalForAll(address,bool)": {
        "details": "See {IERC721-setApprovalForAll}."
      },
      "supportsInterface(bytes4)": {
        "details": "See {IERC165-supportsInterface}."
      },
      "symbol()": {
        "details": "See {IERC721Metadata-symbol}."
      },
      "tokenURI(uint256)": {
        "details": "See {IERC721Metadata-tokenURI}."
      },
      "transferFrom(address,address,uint256)": {
        "details": "See {IERC721-transferFrom}."
      },
      "transferOwnership(address)": {
        "details": "Transfers ownership of the contract to a new account (`newOwner`). Can only be called by the current owner."
      }
    },
    "title": "Repository of ERC721 Deeds This contract contains the list of deeds registered by users. This is a demo to show how tokens(deeds) can be mint and add to the repository",
    "version": 1
  },
  "userdoc": {
    "kind": "user",
    "methods": {},
    "version": 1
  }
}